:020000040800F2
:10000000B846002061020008F125000847230008D7
:1000100041250008F9080008D52C00080000000060
:10002000000000000000000000000000A101000826
:10003000E10A000800000000FD010008B9260008E0
:100040007B0200087B0200087B0200087B0200089C
:100050007B0200087B0200087B0200087B0200088C
:100060007B0200087B0200087B0200087B0200087C
:100070007B0200087B0200087B0200087B0200086C
:100080007B0200087B0200087B0200087B0200085C
:10009000FD0800087B0200087B0200087B020008C4
:1000A0007B0200087B0200087B0200087B0200083C
:1000B000892700087B0200087B0200087B020008F9
:1000C0007B0200087B0200087B0200087B0200081C
:1000D0007B020008652B00087B0200087B020008F9
:1000E0007B0200087B0200087B0200087B020008FC
:1000F0007B0200087B0200087B0200087B020008EC
:100100007B0200087B0200087B0200087B020008DB
:100110007B0200087B0200087B0200087B020008CB
:100120007B0200087B0200087B0200087B020008BB
:100130007B0200087B0200087B0200087B020008AB
:100140007B0200087B0200087B0200087B0200089B
:100150007B0200087B0200087B0200087B0200088B
:100160007B0200087B0200087B0200087B0200087B
:100170007B0200087B0200087B02000800000000F0
:100180007B0200087B020008DFF810D000F0A2FB21
:100190000048004715360008AFF30080B84600203D
:1001A0002C4B19680868B0E8F04F80F30988BFF35A
:1001B0006F8F4FF0000080F311887047000000003F
:1001C00008480068006880F308884FF0000080F35A
:1001D000148862B661B6BFF34F8FBFF36F8F00DF35
:1001E00000BF00BF08ED00E0DFF80C00016841F43B
:1001F00070010160704700BF88ED00E0EFF30980F7
:10020000BFF36F8F134B1A681EF0100F08BF20ED5D
:10021000108A20E9F04F106009B44FF0500080F3CD
:100220001188BFF34F8FBFF36F8F03F095FD4FF031
:10023000000080F3118809BC19680868B0E8F04F25
:100240001EF0100F08BFB0EC108A80F30988BFF3CE
:100250006F8F704714000020EFF305807047000097
:100260000648804706480047FEE7FEE7FEE7FEE750
:10027000FEE7FEE7FEE7FEE7FEE7FEE77927000878
:10028000890100082DE9F05F0546002092469B4653
:1002900088460646814640241BE02846414647469C
:1002A000224600F031FA53465A46C01A914110D303
:1002B00011461846224600F018FA2D1A67EB01087D
:1002C0004F4622460120002100F00FFA17EB0009EB
:1002D0004E41201EA4F10104DFDC484631462A4687
:1002E0004346BDE8F09F40EA01039B0703D009E0C5
:1002F00008C9121F08C0042AFAD203E011F8013B12
:1003000000F8013B521EF9D27047D2B201E000F86A
:10031000012B491EFBD270470022F6E710B51346A9
:100320000A4604461946FFF7F0FF204610BD2DE9A6
:10033000FE4F804681EA0300C00F0C46009021F07A
:10034000004123F00045B8EB0200A94105D2404628
:10035000214690461C460B46024623F000401043BF
:1003600047D0270DC7F30A00C3F30A510290401A81
:10037000019040286BDAC3F3130040F4801B00980F
:10038000924620B10023D2EB030A63EB0B0B0198DA
:100390005946C0F14002504600F0A7F906460D4606
:1003A00050465946019A00F0BFF910EB0800614130
:1003B000002487EA115284EAE7731A4340D0009A76
:1003C00062B3019A012A4FEA075215DC001B61EB68
:1003D00002014FF0004202EA0752CDE90042001C40
:1003E00041F5801132462B4600F0F6F903B0BDE826
:1003F000F08F40462146F9E7001B61EB0201001C2B
:1004000041F5801300185B412018A2F5001747EB57
:10041000030140EAD570B6196D4111E06D084FEA4D
:10042000360645EAC0754FEA0752001B61EB020130
:10043000001C41F5801149084FEA30000019514174
:1004400032462B4603B0BDE8F04F00F0B6B9009835
:10045000012240000023D0EB020263EBE07300981E
:1004600021464FEAE074B8EB000061EB0401E9E7D4
:1004700083F000435BE781F0004158E72DE9FE4F30
:1004800081EA030404F0004421F0004100944FF09D
:10049000000B23F0004350EA01045ED052EA03044B
:1004A0005BD0C3F30A54C1F30A552C44A4F2F334CD
:1004B0000194A0FB0254C1F3130141F48011C3F372
:1004C000130343F4801301FB024400FB034E840A30
:1004D000970A44EA815447EA8357A4FB07680295C8
:1004E0008D0A05FB07854FEA932C04FB0C54270566
:1004F000029D4FEA065847EA1637B5EB08056EEB42
:10050000070C870E920E47EA811742EA8312A7FB77
:100510000201B6EB0B0164EB00042B0D43EA0C3334
:100520005E1844EB1C50DA465146E7FB0201C5F366
:1005300013044FEA0B3343EA14534FEA0432019C8D
:1005400043EA0603A4F10C040294009CCDE900B434
:1005500000F042F903B0BDE8F08F00200146F9E752
:100560002DE9F04D81EA030404F0004B21F0004531
:1005700014464FF0000A23F0004150EA050220D053
:1005800054EA01021DD0C5F30A570246C5F313030E
:10059000C1F31300C1F30A5640F4801543F48013ED
:1005A000A7EB0608101BD64608F2FD3873EB0500D2
:1005B00002D308F1010801E092185B41B8F1000F85
:1005C00003DA00200146BDE8F08D00204FF48011D1
:1005D000064684460EE0171B73EB050705D3121B76
:1005E00063EB050306434CEA010C49084FEA30006F
:1005F00092185B4150EA0107EDD152EA030012D094
:1006000082EA040083EA0501084305D0101BAB41D0
:1006100006D20122002306E000224FF0004302E050
:100620006FF0010253101AEB06004CEB085110EB6F
:100630000A0041EB0B01BDE8F04D00F0BEB80EB56D
:10064000C10F80EAE0700844CA07002140F233433A
:100650008DE80E000A460B4600F0BEF803B000BD60
:1006600000F0004230F000400AD0C10D01F5607189
:10067000C0F3160042EA0151C20840071143704717
:1006800000200146704701F0004330B421F00041E2
:1006900050EA010206D00A0DA2F56072C1F31301FF
:1006A000002A02DC30BC00207047440F44EAC10439
:1006B000C100E01830BC00EBC25000F047B830B5C4
:1006C0000B46014600202022012409E021FA02F510
:1006D0009D4205D303FA02F5491B04FA02F52844AA
:1006E000151EA2F10102F1DC30BD202A04DB203A04
:1006F00000FA02F1002070479140C2F1200320FA75
:1007000003F3194390407047202A04DB203A21FA72
:1007100002F00021704721FA02F3D040C2F120021A
:100720009140084319467047202A06DBCB17203A30
:1007300041FA02F043EAE07306E041FA02F3D040E6
:10074000C2F1200291400843194670470029A8BF12
:100750007047401C490008BF20F00100704710B4EA
:10076000B0FA80FC00FA0CF050EA010404BF10BC9F
:10077000704749B1CCF1200421FA04F411FA0CF1CC
:1007800018BF012121430843A3EB0C01CB1D4FEA05
:1007900000614FEA102042BF002010BC704700EB00
:1007A000C35010440029A4BF10BC7047401C49002E
:1007B00008BF20F0010010BC704710B5141E73F183
:1007C000000408DA401C41F1000192185B411A4311
:1007D00001D120F0010010BD2DE9F04D92469B465D
:1007E00011B1B1FA81F202E0B0FA80F22032904603
:1007F000FFF77BFF04460F4640EA0A0041EA0B017F
:1008000053465A46084313D0114653EA010019D003
:10081000C8F140025046FFF777FF05460E465046A6
:1008200059464246FFF761FF084305D0012004E026
:1008300020463946BDE8F08D0020054346EAE076C3
:100840002C4337430A986305E40AA0EB0800002212
:10085000FD0A44EA47540A3002D500200146E9E780
:10086000010510196941DDE9084500196941BDE834
:10087000F04DA2E7C1F30A52C1F3130140F2FF3376
:1008800041F480119A4202DA00200146704740F29A
:1008900033439A42A2F2334202DC5242FFF734BFA2
:1008A000FFF723BF30B5041E71F1000404DB4FF0E5
:1008B0000044404264EB0101141E73F1000405DBA7
:1008C0001C464FF00043524263EB0403994208BFB9
:1008D000904230BD064C074D06E0E06840F0010351
:1008E00094E8070098471034AC42F6D3FFF750FC69
:1008F00098410008B8410008FEE70000014800F0F8
:1009000084BA00000C03002000B58BB00020012148
:10091000CDE90601059000900190029003900490AB
:100920000E20CDE908106946054800F057F9044843
:1009300000F06EFC0221024800F0D5F80BB000BDBB
:100940000C0300201FB5FFF7DFFFC82002F077FE81
:10095000DFF8D890DFF8D880002400BF01F0F2FD66
:10096000344D354BDFED350A0020494651F8202043
:10097000CAB1C0EB001608EBC60205EB800692ED8B
:10098000070A96ED001AB4EEC10AF1EE10FA08D388
:1009900003EB800696ED001AB4EEC10AF1EE10FAF0
:1009A00001DDC2ED1D0A401C0328DFDB2046641C6C
:1009B0000A2819DDD8F82001FFF752FE06460F4637
:1009C000D8F8A800FFF74CFE04460D46D8F83000D2
:1009D000FFF746FE8DE8F00041EC100B18A053EC39
:1009E000102B02F079F9002498ED770ABDEEC00AC9
:1009F00010EE101A98ED590A0BB2BDEEC00A10EEB7
:100A0000101A98ED3B0A0AB2BDEEC00A10EE101A99
:100A100098ED1D0A09B2BDEEC00A10EE100A00B230
:100A200000F02CF8022002F00AFE97E79000002068
:100A3000D44000209C000020A800002000000000FE
:100A4000313A252E32662C20323A252E32662C2061
:100A5000333A252E3266200A0000000000B587B028
:100A60001C2205496846FFF73EFC0021684602F05B
:100A7000F2FD07B000BD00001C41000810B588B0B1
:100A800008240694A401029400240594049400947C
:100A90000194040A8DF800408DF80100080A8DF8D1
:100AA0000200100A8DF804008DF80520180A8DF850
:100AB00006008DF803108DF80730084800F08FF914
:100AC0000028FAD000236A4602A9044800F01DF865
:100AD000002801D000F005F808B010BD0C0300207C
:100AE000704772B6FEE790F82020012A07D0022A4C
:100AF00005D0416A41F480214162012070470068BD
:100B000042690A43426100207047F0B590F82050D6
:100B10000468A468012D05D0022D03D0416A41F478
:100B2000802157E014F0406F01D1E5004FD5C4F3A8
:100B300001640125A5401D608D684FF4C0739DB10F
:100B4000CE6835434E6845EAC605066803EB0417D0
:100B5000F5514FF4C275076805EB04150E697E5117
:100B6000097D012905D009E00E88CD6845EA465582
:100B7000EBE701684E5946F480764E511179D579EC
:100B8000567941EA056195792D0445EA0625294300
:100B90004FF4C676056806EB0416A9511178D5788E
:100BA00041EA0561957852782D0445EA0222114305
:100BB0004FF4C475026805EB04155151006803EB4E
:100BC0000411425842F0010242500020F0BD416A37
:100BD00041F4001141620120F0BD000010B590F811
:100BE0002020012A07D0022A05D0416A41F4802141
:100BF0004162012010BD3B48D0F8002242F00102C2
:100C0000C0F80022D0F8002222F47C52C0F8002262
:100C1000D0F800224B6A42EA0322C0F800220A7D83
:100C200002F01F0301229A40D0F81C329343C0F80F
:100C30001C32CB69B3B9D0F80C329343C0F80C32F4
:100C40008C894B6864F31F434C6900EBC404C4F8FF
:100C500040320C890B6864F31F434C6900EBC404F9
:100C6000C4F84432CB69012B16D1D0F80C321343AF
:100C7000C0F80C320C884B6864F31F434C6900EBDE
:100C8000C404C4F840320C89CB6864F31F434C6938
:100C900000EBC404C4F844328B69002BD0F8043252
:100CA0000ED01343C0F804320B69002BD0F8143275
:100CB00008D01343C0F81432096A012904D008E0AF
:100CC0009343EFE79343F5E7D0F81C121143C0F8C4
:100CD0001C12D0F8001221F00101C0F8001200200F
:100CE00010BD000000640040704770B590F82040CF
:100CF000012C05D0022C03D0416A41F4802128E068
:100D0000046809B32469A40720D04FF4D874056897
:100D100004EB01142D5915F00405956005682D5953
:100D20001AD0ED08556005682C5904F00204D4600F
:100D30004FF4DA74056804EB01142E5906F00F061F
:100D4000082E0CD308250DE0E468DCE7416A41F485
:100D500000114162012070BD6D0D1560E3E72D5952
:100D600005F00F05156105682D59C5F30725956137
:100D700005682C59240C54614FF4DC72046802EBB2
:100D80000112A4581C700468A458240A5C700468FA
:100D9000A458240C9C700468A258120EDA704FF408
:100DA000DE72046802EB0112A4581C710468A45896
:100DB000240A5C710468A458240C9C710468A2582D
:100DC000120EDA71006829B1016941F02001016158
:100DD000002070BDC16841F02001C160F8E7024603
:100DE000002092F82010012901D002290CD11168AD
:100DF0008A68520100D501208A68120100D5401C82
:100E00008968C90000D5401C70472DE9F05F054690
:100E1000006800244669D0F804908768D0F80CB0C8
:100E2000D0F810A0D0F81880F10748D0F90714D0F6
:100E300001218160B80703D5284600F016FA0CE0BE
:100E4000780702D54FF4006407E0380702D54FF465
:100E5000805402E0284600F007FAF80516D5296804
:100E60004FF480708860B80503D5284600F0FFF97C
:100E70000CE0780502D544F4005407E0380502D5AB
:100E800044F4804402E0284600F0F0F9F80316D557
:100E900029684FF480308860B80303D5284600F0F5
:100EA000E8F90CE0780302D544F4004407E0380385
:100EB00002D544F4803402E0284600F0D9F9300726
:100EC00007D55FEACB6004D52968102044F400748C
:100ED000C86070074FF0080707D55FEA0B7004D5AC
:100EE0002868C760284600F057F9B00706D528687B
:100EF000C068800702D0284600F050F9700607D578
:100F00005FEACA6004D52968102044F4806408614F
:100F1000B00607D55FEA0A7004D52868076128463D
:100F200000F072F9F00606D528680069800702D043
:100F3000284600F06AF9B00308D55FEAC96005D514
:100F4000296810204860284600F060F9F00307D5B2
:100F50005FEA097004D528684760284600F08AF9DE
:100F6000300446D55FEA497040D5F00504D55FEA04
:100F7000C87001D044F00104B00504D55FEA887060
:100F800001D544F00204700504D55FEA487001D52C
:100F900044F00404300529D518F0700F26D008F06D
:100FA0007000402815D006DC102809D020280AD06F
:100FB000302816D10AE050280ED0602811D10EE05A
:100FC00044F008040DE044F010040AE044F020046A
:100FD00007E044F0400404E044F0800401E044F4FD
:100FE00080742868816921F070018161296804207A
:100FF0004860002C05D0686A204368622846FFF7E5
:1010000073FEBDE8F09F70B5040003D094F8200093
:1010100010B104E0012070BD204600F081F8206886
:10102000016841F00101016000F086FA05460526DD
:1010300004E000F081FA401B0A2811D820684068BB
:10104000C007F6D02068016821F00201016000F0BD
:1010500073FA05460BE000F06FFA401B0A2806D928
:10106000606A40F40030606284F82060D2E7206853
:1010700040688007EFD4207E0128206801683DD0B9
:1010800021F080010160607E01282068016838D06D
:1010900021F040010160A07E01282068016833D062
:1010A00021F020010160E07E0128206801682ED037
:1010B00041F010010160207F01282068016829D0DB
:1010C00021F008010160607F01282068016824D0B8
:1010D00021F004010160D4E902010843D4E90412BB
:1010E000114308436168491E08432168C861002014
:1010F0006062012084F82000002070BD41F0800172
:10110000C0E741F04001C5E741F02001CAE721F006
:101110001001CFE741F00801D4E741F00401D9E71D
:1011200010B586B0044614216846FFF7F5F8174954
:101130002068884227D116480021026842F00072D8
:101140000260006800F000700590114810380268D5
:1011500042F0080202600068022200F008000590D8
:101160000320CDE90210CDE9000209200490694670
:10117000084800F0DBF800220521142000F07AFA7C
:10118000142000F069FA06B010BD000000640040B1
:1011900040380240000C02407047000000B589B0A2
:1011A000002007900146089007AB6A461448FFF7F5
:1011B0009CFD08B1FFF795FC0098A0F201200328E0
:1011C0001AD2C0EB00110F4800EBC10001691429CD
:1011D0000EDABDF81C1049BA09B200EE101AB8EECA
:1011E000C00A80ED090A0169491C016109B000BD0E
:1011F00007A901F0E9FCF9E7FFF773FCF6E7000047
:101200000C030020D4400020704770477047000056
:1012100070B5044690F82000012804D0606A40F4BC
:101220000020606218E0022084F820002068016835
:1012300021F00101016000F07FF905460EE000BFDA
:1012400000F07AF9401B0A2808D9606A40F400309F
:101250006062052084F82000012070BD206840688D
:10126000C007EDD1606270BD70477047704770472E
:101270007047704770472DE9F0410446876D00F0D4
:101280005BF9064694F835000025022806D0802038
:10129000606584F834500120BDE8F0812068016861
:1012A00021F0160101602068416921F0800141614F
:1012B000206C08B9A06C20B12068016821F00801F9
:1012C00001602068016821F0010101600CE000F07C
:1012D00033F9801B052807D920206065032084F896
:1012E000350084F83450D7E720680068C007EED195
:1012F00094F85C103F208840B860012084F83500E5
:1013000084F834500020C7E790F83510022903D044
:101310008021416501207047052180F83510006863
:10132000016821F001010160002070472DE9F84FAC
:10133000DFF8BCA10022012503264FF00F090AF1B6
:10134000040BAAF1040E00BF0B6805FA02F4234057
:10135000A34270D10F7907F00307012F01D0022FAC
:1013600016D187684FEA420806FA08FC27EA0C07FC
:10137000D1F80CC00CFA08FC4CEA070CC0F808C005
:101380004768A7430C79C4F3001494403C4344607D
:101390000C79E443A4070AD0C4684FEA420C06FA69
:1013A0000CF7BC438F6807FA0CF72743C7600C792A
:1013B00004F00304022C12D1D40800EB840CDCF8F6
:1013C00020405707FF0E09FA07F824EA0804D1F86D
:1013D000108008FA07F848EA0408CCF8208004686E
:1013E0004FEA420C06FA0CF7BC430F7907F00307EB
:1013F00007FA0CF7274307604C6814F4403F70D09D
:101400003C4C276847F480472760246822F0030794
:1014100004F480440094384C07EB040CDCF80848D2
:1014200097074FEA177809FA08F7BC43334FB842D9
:1014300002D1002724E054E0314FB84201D1012706
:101440001EE0304FB84201D1022719E02E4FB842BA
:1014500001D1032714E02D4FB84201D104270FE03A
:101460002B4FB84201D105270AE02A4FB84201D1DB
:10147000062705E0284FB84201D1072700E00827DA
:1014800007FA08F72743CCF80878DAF800405746FF
:10149000D1F804C09C435FEACC2C00D51C433C60CF
:1014A000DBF800405F46D1F804C09C435FEA8C2C17
:1014B00000D51C433C60DEF800407746D1F804C0FC
:1014C0009C435FEA8C3C00D51C433C60084F083FBE
:1014D0003C68D1F804C09C435FEACC3C00D51C4377
:1014E0003C60521C102AFFF42FAFBDE8F88F0000BB
:1014F000083C0140443802400030014000000240F6
:101500000004024000080240000C024000100240AB
:101510000014024000180240001C0240426921EA07
:1015200002030A4043EA0241816170470AB18161C6
:1015300070470904FBE7000001488068704700001D
:1015400004000020024881680278114481607047DD
:10155000040000200B4810B5016841F400710160DF
:10156000016841F480610160016841F480710160AB
:10157000032000F09FF80F2000F006F800F050F86C
:10158000002010BD003C024030B50546204887B021
:101590000024016841F001010160006806A900F023
:1015A0000100009001A800F031F90498B0B100F0FA
:1015B0004DF9400017494FF08042B0FBF1F1164859
:1015C000491E026040F2E732C0E90324C0E9011479
:1015D000846100F045FB040003D015E000F036F90B
:1015E000E8E70D4800F06AFB04000DD11C2000F074
:1015F00033F8102D07D2002229461C2000F03AF8BB
:101600000648056000E0012407B0204630BD000018
:101610004038024040420F007C03002008000020B8
:101620000C4882B0016841F480410160006800F418
:10163000804000900748001F016841F08051016020
:101640000068002200F0805000900F21901E02B030
:1016500000F010B844380240002809DB00F01F02F7
:10166000012191404009800000F1E020C0F8001104
:1016700070470000F0B40E4B1B680C46C3F3022306
:10168000C3F10705042D00D90425191D072901D22E
:10169000002300E0DB1E012606FA05F1491E214069
:1016A00099409E40761E16403143F0BC01F024BBA9
:1016B0000CED00E0064900F0070208684FF6FF0352
:1016C000184040EA0220034A1043086070470000B7
:1016D0000CED00E00000FA052DE9F0470E4605008C
:1016E00065D0DFF81481D8F80000F7B200F00700E9
:1016F000B04207D288F80070D8F8000000F0070068
:10170000B04254D128683D4C810712D5400703D51B
:10171000206840F4E05020602878000703D5206856
:1017200040F4604020602068A96820F0F000084381
:1017300020602878C0072DD0304968680839012812
:1017400012D0022813D0032811D009688907002974
:101750002DDA216821F0030101432160FFF7ECFE3F
:10176000814641F2883A0EE009688903EFE709688B
:101770008901ECE7FFF7E0FEA0EB0901514502D932
:101780000320BDE8F0872068696800F00C00B0EB2A
:10179000810FEFD1D8F80010404601F00701B142A7
:1017A00007D90770006800F00700B04201D001209F
:1017B000E7E72878400705D52068E96820F4E0507D
:1017C000084320602878000706D52068296920F49E
:1017D000604040EAC100206000F058F82168084AE3
:1017E000C1F30311515CC84006490860064800680F
:1017F000FFF7CAFE0020C4E7003C02400838024060
:101800000441000810000020080000200F220260A0
:101810000C4A136803F003034360136803F0F003FA
:101820008360136803F4E053C36012684FF4E0531D
:1018300003EAD20202610448006800F00700086071
:101840007047000008380240003C02400448054947
:1018500000680968044AC1F38221515CC84070479E
:1018600010000020083802401441000804480549CF
:1018700000680968044AC1F34231515CC8407047AE
:10188000100000200838024014410008154810B527
:10189000006810F00C02144813D01449042A0FD029
:1018A000082A0ED10F4C241F2268236802F03F0241
:1018B0005B0207D52068C0F38810A0FB010106E099
:1018C000084610BD2168C1F38811A1FB0001002367
:1018D000FEF7D8FC2168C1F30141491C4900B0FB67
:1018E000F1F010BD083802400024F400001BB700DE
:1018F0002DE9F84F04006ED02078DFF84C93C00734
:10190000A9F104054AD009F104000168C1F381017D
:10191000012908D00068C0F3810002280AD1D9F853
:101920000000400206D52868800337D5606800288B
:10193000E1D033E06068B0F5803F10D0B0F5A02F63
:10194000286810D020F480302860286820F4802097
:1019500028606068A8B1FFF7EFFD06460DE0286833
:1019600040F48030F4E740F480202860F7E700BFBF
:10197000FFF7E2FD801B642873D828688003F7D541
:101980000CE0FFF7D9FD064605E000BFFFF7D4FDE8
:10199000801B6428F0D828688003F7D42078DFF80B
:1019A000AC8280074FF0000A3ED5A748001D0168B1
:1019B00011F00C0F08D00068C0F3810002280BD191
:1019C000D9F80000400207D42868800716D5E068DF
:1019D000012800D112E033E1E068B8B10120C8F875
:1019E0000000FFF7A9FD064605E000BFFFF7A4FDD4
:1019F000801B0228C0D828688007F7D5286821698D
:101A000020F0F80040EAC10028600DE0C8F800A00E
:101A1000FFF792FD064604E0FFF78EFD801B0228CB
:101A20001FD828688007F7D42078000722D5864F72
:101A300087486169703771B101210160FFF77CFD52
:101A4000064604E0FFF778FD801B022809D83868B5
:101A50008007F7D50EE0C0F800A0FFF76DFD064641
:101A600005E082E0FFF768FD801B02287DD838681A
:101A70008007F7D42078400768D5DFF8CCB100277D
:101A80000BF13C0BDBF80000C0000BD4DBF80010BE
:101A900041F08051CBF80010DBF80000012700F086
:101AA000805000906B4E3068C00510D4306840F410
:101AB00080703060FFF740FD009005E0FFF73CFDCF
:101AC0000099401A022850D83068C005F6D55E4EFD
:101AD000A0686C3601280FD00528306810D020F09F
:101AE00001003060306820F004003060A068B8B1B8
:101AF000FFF722FD00900FE0306840F00100F4E7AE
:101B000040F004003060F7E7FFF716FD0099411A36
:101B100041F28830814266D830688007F4D50EE003
:101B2000FFF70AFD009007E0FFF706FD0099411A54
:101B300041F28830814256D830688007F4D42FB102
:101B4000DBF8001021F08051CBF80010A069C8B379
:101B50003D49091D0968C1F3810102294AD00228C3
:101B6000504607D0C8F8600000E03CE0FFF7E4FC16
:101B700004463BE04746C8F86000FFF7DDFC064638
:101B800005E000BFFFF7D8FC801B02282BD828688F
:101B90008001F7D4D4E907010843A16A2E4A490815
:101BA00002EB0141626A41EA8211084394F82C1069
:101BB00040EA0161C9F8001001203866FFF7BCFC5B
:101BC000044606E03EE000BFFFF7B6FC001B02281B
:101BD00009D828688001F7D534E000BFFFF7ACFCD6
:101BE000001B022802D90320BDE8F88F2868800175
:101BF000F4D427E00128F7D0D9F80000E26900F416
:101C0000800191421CD1226A00F03F01914217D11C
:101C100047F6C071626A0140B1EB821F10D1A26A1F
:101C20004FF0FF3300F4403103EB5202B1EB024FAF
:101C300006D194F82C1000F07060B0EB016F01D069
:101C40000120D1E70020CFE70438024000004742DE
:101C5000800E4742007000400000FFFF7047704751
:101C600010B5040003D094F83D0010B107E0012046
:101C700010BD002084F83C00204600F01EF8022031
:101C800084F83D00211D206800F084FD012084F8C7
:101C9000460084F83E0084F83F0084F8400084F851
:101CA000410084F8420084F8430084F8440084F83A
:101CB000450084F83D00002010BD704790F83D10AD
:101CC000012901D001207047022180F83D100168F0
:101CD000CA6842F00102CA6000681149884214D003
:101CE000B0F1804F11D00F4988420ED00E49884282
:101CF0000BD00E49884208D00D49884205D00D49C5
:101D0000884202D00C49884204D1816801F0070161
:101D1000062903D0016841F00101016000207047ED
:101D2000000001400004004000080040000C00409A
:101D300000040140004001400018004070472DE9B8
:101D4000F04104460068C66805694FF00007A9071E
:101D500013D5B10711D5F91E016101202077206844
:101D600080698007204602D0FFF7E8FF04E000F01A
:101D70007EF8204600F07CF82777680716D57007B4
:101D800014D521686FF004000861022020772068D4
:101D9000806910F4407F204602D0FFF7CFFF04E0B7
:101DA00000F065F8204600F063F82777280715D57E
:101DB000300713D521686FF00800086104202077F0
:101DC0002068C0698007204602D0FFF7B7FF04E013
:101DD00000F04DF8204600F04BF82777E80616D5BE
:101DE000F00614D521686FF01000086108202077F4
:101DF0002068C06910F4407F204602D0FFF79EFFA4
:101E000004E000F034F8204600F032F82777E807C5
:101E100008D0F00706D021686FF001000861204665
:101E200000F027F8280608D5300606D521686FF09F
:101E3000800008612046FFF711FF680608D570068C
:101E400006D521686FF040000861204600F018F8C0
:101E5000A8060AD5B00608D521686FF020000861F1
:101E60002046BDE8F041FFF7FABEBDE8F0817047BB
:101E700070470068B0F1804F01D1FFF763BB704736
:101E80007047704770470000F8B50168044608685D
:101E9000CA684B6910F00F0F4FF0000559D003F0DE
:101EA000010602F49077374365D0C10705D0D1050C
:101EB00003D5616C41F001016164410705D5D90783
:101EC00003D0616C41F002016164810705D5D90737
:101ED00003D0616C41F004016164010707D502F091
:101EE0002001314303D0616C41F008016164616CF1
:101EF00000293AD0800604D5900602D5204600F08D
:101F0000F5FC20684069616CC0F38010090700D4BB
:101F100060B3204600F0ADFC20684069400621D542
:101F20002068143050E8001F21F0400140E8001202
:101F3000002AF5D1E06BA8B172490165E06BFFF7AB
:101F4000E3F9002811D0E06B016D01B0BDE8F0406D
:101F5000084783060FD593060DD52046BDE8F84007
:101F600000F0C4BC2046FFF78DFFF8BD2046FFF708
:101F700089FF6564F8BD266B2023012E7ED1C6063D
:101F80007CD5D6067AD508684868009048694FF035
:101F9000020640064DD5E26B106840684FF480772A
:101FA0000004000C3AD0A18D814237D9E085D06978
:101FB000B8422DD020680C3050E8001F21F4807109
:101FC00040E80012002AF5D12068143050E8001FC4
:101FD00021F0010140E80012002AF5D120681430F8
:101FE00050E8001F21F0400140E80012002AF5D11E
:101FF00084F84230256320680C3050E8001F21F03F
:10200000100140E80012002AF5D1E06BFFF733F928
:102010006663A08DE18D401A81B206E0A18D8142F8
:10202000A8D1D069B842A5D166632046FFF729FF41
:10203000F8BDA08DE18D401A81B2E08D0028F7D067
:102040000029F5D020680C3050E8002F22F490725F
:1020500040E80027002FF5D12068143050E8002F09
:1020600022F0010240E80027002FF5D184F8423029
:10207000256320680C3050E8002F00E006E022F0D5
:10208000100240E80023002BF3D1CDE705062BD545
:10209000150629D594F841002128C9D1A068B0F5CA
:1020A000805F01D12069B0B1206A411C21622168A2
:1020B00000784860E08C401E0004000CE084B7D13A
:1020C0002068C16821F08001C1602068C16841F0CA
:1020D0004001C160F8BD206A0088C0F30800486074
:1020E000206A801C2062E5E74006F3D55006F1D552
:1020F000CA68204622F04002CA6084F8413000F0ED
:1021000021F9F8BD6528000870B5040004D094F8E2
:102110004100002510B106E0012070BD84F8405058
:10212000204600F023F8242084F841002068C1688C
:1021300021F40051C160204600F03AFC206801699A
:1021400021F4904101612068416921F02A01416137
:102150002068C16841F40051C1606564202084F8A2
:10216000410084F842006563002070BDF0B587B07F
:10217000044614216846FEF7CFF8204920688842BB
:102180003AD11F480024016841F010010160006845
:1021900000F0100005901A481438016841F002015F
:1021A0000160016801F002010591016841F001013F
:1021B00001600068022500F0010005908020CDE953
:1021C000000502AA0326072782E8D00069460D48C9
:1021D000FFF7ACF82802CDE9000502AA694682E8BB
:1021E000D0000948FFF7A2F8002205212520FFF7BB
:1021F00041FA2520FFF730FA07B0F0BD001001408A
:1022000044380240000402400000024090F842308E
:10221000202B01D00220704721B11AB100230363A3
:1022200000F04CBC012070472DE9FF41194988425C
:102230002DD11A48184F00240578467839190F22F5
:102240006846FEF750F89DF80000A84214D19DF8AA
:102250000100B04210D19DF80200DDF80310C0EB80
:1022600000120F4800EBC2008162DDF80710C16266
:10227000DDF80B10016302E0641C1E2CDED304B0F9
:102280001E22BDE8F04104490248FFF7BFBFBDE888
:10229000FF81000034030020B44000208C000020A7
:1022A000D44000202DE9F843044690F841009846B8
:1022B00016460D46202802D00220BDE8F88385B1DD
:1022C0007EB100206064212084F84100FFF734F9DA
:1022D000A6848146E684A0682027B0F5805F02D0FE
:1022E00003E00120E9E7206910B12E4600250EE049
:1022F00000260CE08021204600F0FBFBA8B9C6B107
:1023000016F8010B21684860E08C401EE084E08CE8
:102310004B464FF00002CDF800800028EAD14FF084
:102320004001204600F0E5FB40B184F841700320F5
:10233000C3E735F8020BC0F30800E3E784F8417007
:102340000020BAE77047FEE70021244A9FED240AE7
:102350009FED244ADFED244ADFED241ADFED242A25
:102360009FED243ADFED243A0B46F1EE060AB3EE78
:10237000091AB0EE042AB7EE005A00BFC1EB0110F3
:1023800002F8301002EBC00000F1500C036280ED47
:102390000A0A80ED0B0A80ED0C0AC0ED0D0A80EDF3
:1023A0000E4A80ED0F1A80ED120AC0ED134A80ED3F
:1023B000100A80ED110A80ED175A80ED1A0A80ED9F
:1023C0001B3AC0ED1C3A80ED180A80ED190A491C31
:1023D000CCEC031A0329D1DB70470000D440002065
:1023E000000000003333B33E00606A4600606AC6F6
:1023F0000AD7A33D00007A4500007AC50E4810B503
:102400000C4901600721416000214FF44032816096
:10241000C0E903124161017641768176C176017788
:102420004177FEF7F0FD002803D0BDE81040FEF72D
:1024300058BB10BD006400400C03002000B587B0FD
:102440001C2209496846FDF74EFF0021684601F04D
:1024500002F90649086000F08BFB0122D102044812
:10246000FFF764F807B000BDE84000080000002056
:10247000001C024070B586B014216846FDF74CFF81
:102480001E480024016841F001010160016801F06B
:1024900001010591016841F002010160016801F04C
:1024A00002010591016841F008010160016801F035
:1024B00008010591016841F0800101600068104E3B
:1024C00000F080004FF4E055059000222946304688
:1024D000FFF72CF801200095CDE90104694630464C
:1024E0000394FEF723FFB014CDE9000469460548C4
:1024F0000294FEF71BFF06B070BD000030380240AA
:10250000001C0240000402400C4810B50A4901605A
:102510004FF4E1314160002181600C22C160C0E9CB
:1025200004128161C161FFF7EFFD002803D0BDE80F
:102530001040FEF7D6BA10BD001001403403002051
:10254000FEE7000010B59FED263A264B264C0022F0
:10255000C2EB021004EBC00191ED0A0A10EE100A62
:1025600098420CD0D1ED050A20EE030A01F13400A7
:1025700000F03FF8D1ED060A91ED120A09E091ED65
:102580000B0A10EE100A98420AD020EE030AD1ED91
:10259000060A01F1540000F02CF891ED1A0A16E039
:1025A00091ED0C0A10EE100A984216D0D1ED1B0ADC
:1025B000B4EEE00AF1EE10FA06DCD1ED1C0AB4EE3E
:1025C000E00AF1EE10FA02D2C1ED1D0A01E081ED40
:1025D0001D0A521C042ABBDB10BD9FED040AF6E75E
:1025E00000001042000080BFD44000200000000026
:1025F000FEE730EE600AD0ED041AD0ED000AF0EEEE
:10260000002A30EE611AB0EE402A60EE810A90EDA9
:10261000011A41EE000A90ED031A01EE622A72EEF1
:10262000211A90ED022A42EE210AD0ED051A70EE31
:10263000A11AC0ED051AD0ED060AF4EEE01AF1EE8B
:1026400010FA01DDC0ED050AD0ED051AD0ED070A3C
:10265000F4EEE01AF1EE10FA01D2C0ED050A80EDB9
:10266000041A80ED030A704700F02AF9074D002490
:10267000C4EB041005EBC00000F086FA042000F063
:10268000DEFF641C032CF3DBF1E70000D4400020E4
:1026900000B587B01C2205496846FDF724FE0021DD
:1026A000684600F0D8FF07B000BD000038410008C0
:1026B000012000F0C4FFFBE710B5502080F3118823
:1026C000BFF34F8FBFF36F8F01F046FC18B1044981
:1026D0004FF080500860002080F3118810BD00008A
:1026E00004ED00E030B593B030216846FDF714FEEC
:1026F00014210CA8FDF710FE1D480025016841F0CB
:1027000080510160006800F0805011901948016804
:1027100041F4804101600068022400F4804011907F
:1027200001200090000401908001CDE906400620C0
:102730000890A820CDE9090404200B906846FFF713
:10274000D7F808B172B6FEE70CA90F2081E8310076
:102750004FF4A0500F904FF48050109005210CA81A
:10276000FEF7BAFF002801D072B6FEE713B030BD05
:1027700040380240007000400248016841F4700196
:102780000160704788ED00E00148FFF7D8BA00000B
:102790007C030020F0B50268274B284D284E294FB6
:1027A000294C4FF0804C984209D0604507D0A84290
:1027B00005D0B04203D0B84201D0A04204D122F0EB
:1027C000700E4A6842EA0E0298421BD0604519D04A
:1027D000A84217D0B04215D0B84213D0A04211D0B1
:1027E0001A4DA8420ED01A4DA8420BD0194DA8423E
:1027F00008D0194DA84205D0184DA84202D0184D56
:10280000A84203D122F44075CA682A434D6922F0D8
:1028100080022A438D68C5620D688562984201D0A6
:10282000A04201D109690163016841F0040101601E
:10283000012141610260F0BD000001400004004040
:1028400000080040000C004000040140004001402E
:10285000004401400048014000180040001C0040B6
:102860000020004010B5806B0021C185FFF70AFBF6
:1028700010BD01680C3151E8002F22F4907241E83C
:102880000023002BF5D10168143151E8002F22F00C
:10289000010241E80023002BF5D1016B012909D188
:1028A00001680C3151E8002F22F0100241E80023AA
:1028B000002BF5D1202180F84210002101637047E0
:1028C00010B51E2204490548FFF7A0FCBDE81040E2
:1028D00003A000F001BA0000B4400020340300203F
:1028E000756172745F696E6974200A0008B590F8AA
:1028F0004210222901D0022008BD82684FF4805383
:102900009A4201D1016921B1816A9A421BD04AB130
:102910000AE00268816A5268C2F308020A80816A8A
:10292000891C08E0026972B10268526802F07F02F5
:102930000A70816A491C8162C18D491E0904090C13
:10294000C18503D01BE002685268F1E70168CA68DC
:1029500022F02002CA600168CA6822F48072CA604C
:1029600001684A6922F001024A61202180F8421080
:1029700000214163026B012A03D0FFF755FC0020C0
:1029800008BD016301680C3151E8002F22F01002EC
:1029900041E80023002BF5D101680A68D20602D570
:1029A0000A6849680091818DFFF76BFAE7E700003C
:1029B00070B5044600680169E26821F44051114392
:1029C00001612169A068E269084361691143084314
:1029D0002168CA6849F20C639A430243CA602068BE
:1029E0004169A26921F44071114341613149206874
:1029F000884202D03049884202D1FEF737FF01E019
:102A0000FEF724FFE2690023192164253226B2F57E
:102A1000004F626828D0A0FB0101930F9200FDF7E0
:102A200031FC0146B0FBF5F06FF01802504301EBAA
:102A3000800006EB0010B0FBF5F000F0F002B1FBF7
:102A4000F5F002EB0012B1FBF5F06FF018035843FC
:102A500001EB800006EB0010B0FBF5F000F00F007A
:102A600021681044886070BDA0FB010192185B4191
:102A7000FDF708FC0146B0FBF5F00201B1FBF5F0F3
:102A80006FF01803584301EB800006EBC000B0FB69
:102A9000F5F000F0F80002EB4002B1FBF5F058430E
:102AA00001EB800006EBC000B0FBF5F000F0070082
:102AB000D6E70000001001400014014081628285C9
:102AC000C28500214164222180F84210016921B1B0
:102AD0000168CA6842F48072CA6001684A6942F0BB
:102AE00001024A610068C16841F02001C160002014
:102AF00070472DE9F843984617460D460446089E50
:102B000024E0701C22D0FEF717FDA0EB0800B042B5
:102B10001AD8CEB12068C168490717D5802D15D0C5
:102B2000402D13D00168C94309070FD4016800255F
:102B3000406800902046FFF79CFE0820606484F8FF
:102B400040500120BDE8F8830320FBE720680068BF
:102B500035EA000004D00020B842D2D00020F1E7CE
:102B60000120F9E70148FFF78FB900003403002086
:102B700010B5FFF7E9FB00F03DFDFDF76FFFBDE885
:102B80001040FFF785BD00001FB50D490A230A78E4
:102B90008DF8002049788DF8011001788DF8021029
:102BA000C169CDF803108168CDF80710C068CDF871
:102BB0000B000F2269460348FFF774FB1FBD00009E
:102BC0008C0000203403002070B504462DED088BE6
:102BD0000888DFED388A40BA00B200EE100AB8EE7D
:102BE000C08A84ED018A488840BA00B200EE100A1B
:102BF000B8EEC00A84ED060A888840BA00B200EE3A
:102C0000900A2D48F8EEE00AC4ED030AC0EE280A47
:102C1000C4ED020A217800EB8105284995ED000AF0
:102C200038EE400A10EE100A884202DD206A401E8B
:102C3000206295ED000A224938EE400A10EE100A93
:102C4000884202D9206A401C2062606AFDF708FDB4
:102C500041EC190B206AFDF7F2FC9FED1ABB53EC17
:102C60001B2BFDF70BFC41EC1A0B18EE100AFDF7BD
:102C7000F7FC53EC1A2BFDF75AFB53EC192BFDF71D
:102C8000F7FB53EC1B2BFDF76BFC9FED101B53EC7C
:102C9000112BFDF7F3FBFDF7F6FC00EE100A84EDB7
:102CA000050AC0EE280AC4ED070A85ED008ABDECCE
:102CB000088B70BD000010427C00002000409C4545
:102CC00000409CC50000000000FFBF400000000065
:102CD00000807640FEE700000FB4054B10B503A955
:102CE000044A029800F0EAF810BC5DF814FB0000FA
:102CF000C3350008B40000200907090E002804DBD2
:102D000000F1E02080F80014704700F00F0000F19F
:102D1000E02080F8141D704702E008C8121F08C1A7
:102D2000002AFAD170477047002001E001C1121F4C
:102D3000002AFBD1704700002DE9FF5F82B000211F
:102D4000DDE90430020DDDF840B0034318D044F64D
:102D50001050A2F2FF3242431514119801281FD0DF
:102D6000A5EB0B00401C5FEA000A4FF000064E4F37
:102D7000DFF83891B046504615D5CAF1000413E08B
:102D8000119801244AA3012801D16FEA0B0102988E
:102D9000119AC0E90031C0E9024206B0BDE8F09FD7
:102DA000CBF10000DFE704460021404A491842EB1E
:102DB0000450CDE9001012E0E00707D032463B4650
:102DC00040464946FDF75AFB8046894632463B4617
:102DD00010461946FDF752FB06460F466410002CBC
:102DE000EAD1DDE90401DDE90023BAF1000F06DADA
:102DF000FDF744FB42464B46FDF740FB05E0FDF77F
:102E0000AFFB42464B46FDF7ABFB04460E460022A5
:102E1000284BFDF747FD03D84FF0FF30014607E090
:102E20000022254B20463146FDF781FAFDF722FDB1
:102E3000102409E0002C0ADB0A220023FDF722FA05
:102E4000039B30321A55641E50EA0102F2D1641C11
:102E5000039AC4F111031444119A012A03D00122E8
:102E600008430DD10AE0084304D000204FF0110BB5
:102E7000119072E7A3EB0B056D1E0DE05B4504DDC1
:102E80004FF0000205F1010504E003DA4FF0000203
:102E9000A5F10105002AECD002981199C0E9023190
:102EA000C0E9004579E70000000014400000F03F51
:102EB000300000000000F0430000E03F2DE9FF4F2C
:102EC00095B09A46884606460025EEE1252877D13A
:102ED00000242746F94A0121039400E0044316F830
:102EE000013F203B01FA03F01042F7D130782A2845
:102EF00011D06FF02F033078A0F13002092A16D8D4
:102F0000039A44F0020402EB820203EB42021044F3
:102F1000761C0390EFE758F8042B0392002A03DA9B
:102F2000504244F40054039044F00204761C30787C
:102F30002E2816D116F8010F44F004042A280DD0CB
:102F40006FF02F023078A0F13003092B09D807EB7E
:102F5000870302EB4303C718761CF3E758F8047B9A
:102F6000761C30786C280FD006DC4C2817D06828E7
:102F70000DD06A2814D104E0742810D07A280FD11B
:102F80000DE044F400140AE044F4801401E044F439
:102F900040147278824202D104F58014761C761CAB
:102FA000307866280BD013DC582877D009DC00284D
:102FB00075D04528F6D04628F4D047281AD193E199
:102FC00018E0632835D0642879D0652812D18BE1C8
:102FD000702873D008DC6728F1D069286FD06E287C
:102FE0000DD06F2806D1ACE073282CD0752874D092
:102FF000782853D05246179990476D1C54E1C4F37A
:103000000250022809D003280DD0D8F80010042857
:103010000DD00D6008F1040846E1D8F80010EA1759
:10302000C1E90052F6E7D8F800100D80F2E70D7004
:10303000F0E718F8041B8DF8001000208DF801004F
:10304000EB46012003E058F804BB4FF0FF30610766
:103050004FF0000102D40DE009F101018946B942A7
:103060000FDA8145F8DB1BF809100029F4D108E0DC
:1030700009F1010189468142FADB1BF80910002998
:10308000F6D103985346A0EB090721463846179A14
:1030900000F080FA284400EB090507E044E008E16D
:1030A0000DE01BF8010B524617999047B9F1010941
:1030B000F7D2534621463846179AF2E039E00A2102
:1030C000C4F302524FF0000B0091022A06D058F8C8
:1030D000040BC117032A09D00AE023E008F1070016
:1030E00020F00702F2E80201904605E000B2C117A5
:1030F000042A01D140B2C117002906DA0A4600218C
:10310000404261EB02012D2202E0220504D52B2270
:103110008DF80420012203E0E20701D02022F7E726
:10312000914657E00A2100E010214FF0000B00917A
:103130000BE010214FF0000B44F00404082700912D
:1031400003E008204FF0000B0090C4F30252022A63
:1031500005D058F8040B0021032A08D008E008F134
:10316000070020F00702F2E80201904603E080B277
:10317000042A00D1C0B24FF0000922072AD53278C4
:10318000702A07D0DDF800C08CF0100C5CEA0B0C44
:1031900005D00EE040228DF80420012208E050EA1C
:1031A000010306D030238DF804308DF8052002226B
:1031B0009146009B83F0080353EA0B030AD150EABF
:1031C000010201D1620705D530228DF804204FF0AD
:1031D00001097F1E3278582A04D039A20C920CAA19
:1031E00002920BE03BA2F9E75B46009AFDF74AF832
:1031F0000C9B9B5C029A521E0292137050EA0102D1
:10320000F2D1029804A9081A00F1200B600702D538
:1032100024F4803400E001275F4502DDA7EB0B00BA
:1032200000E0002000EB0B01009003984944401A95
:103230000390E00306D453462146179A039800F002
:10324000A9F90544002706E001A85246C05D179978
:1032500090476D1C7F1C4F45F6DBE0030CD55346B1
:103260002146179A039800F095F9054404E03020B0
:103270005246179990476D1C0099481E00900029EE
:10328000F5DC08E00298029952460078491C029148
:10329000179990476D1CBBF10001ABF1010BF1DCFC
:1032A0005BE100F065F90544761C307800287FF476
:1032B0000DAE19B02846BDE8F08F000009280100C6
:1032C000303132333435363738396162636465669C
:1032D000000000003031323334353637383941425E
:1032E0004344454600000000600700D4062708F16B
:1032F000070020F00700F0E80223804603F0004CAE
:103300005FEA0C0001D097A009E0200501D596A046
:1033100005E0E00701D095A001E0AFF24C0013906A
:10332000307823F0004365280CD006DC452809D00E
:1033300046281DD047287FD13BE0662818D0672853
:103340007AD136E00021112F01DB112000E0781C3A
:10335000CDE9000104A90CA8FFF7EEFCDDE90D01A1
:103360000C9A4FF0000B07F10109109200914EE00A
:103370004FF000400097CDE9011004A90CA8FFF719
:10338000DBFCDDE90D020C9B0F994FF0000B914621
:103390001093009211B9791C00EB0109B7EB0900F9
:1033A00003D4C0F1FF3B07F10109A9EB070001902D
:1033B00042E0012F00DA01270021112F01DD112049
:1033C00000E03846CDE9000104A90CA8FFF7B4FCE1
:1033D000DDE90D010C9A00914FF0000BB9461092F7
:1033E00021070FD4009A4A4503DA914601E0A9F17A
:1033F0000109B9F1010F05DD109AA9F10101515C34
:103400003029F4D0B84202DA10F1040F03DA0121B6
:10341000CDE9011010E0002803DC8344A9EB000192
:1034200002E0411C494500DD8946A0EB0B00401C31
:1034300001904FF000400290200705D401984845C4
:1034400002DB4FF0FF30019000208DF84B00029816
:103450000DF14B07B0F1004F25D002200C902B202E
:103460000D90029800280CDA404202902D200D9019
:1034700007E00A210298FDF722F93031029007F89F
:10348000011D0C99481E0C900029F2DC02980028BE
:10349000EFD1791E0D980870307800F0200040F0D0
:1034A000450007F8020D11A8C01BC01D029013981B
:1034B000007800B1012000EB0901019801EBE071F7
:1034C000029801440398401A401E0390E00306D47A
:1034D00053462146179A039800F05CF80544139868
:1034E000007818B15246179990476D1CE00323D518
:1034F00053462146179A039800F04CF805441BE008
:10350000BBF1000F07DB0098584504DD10981799B0
:1035100010F80B0001E017993020524690470198AF
:103520000BF1010B401E05F10105019004D12E2085
:103530005246179990476D1CB9F10001A9F1010994
:10354000DEDC05E017F8010B5246179990476D1C19
:103550000299481E02900029F4DC53462146179A2E
:1035600003989EE62D0000002B00000020000000C4
:103570002DE9F041044600251E461746880404D470
:1035800005E039462020B0476D1C641EF9D5284659
:10359000BDE8F0812DE9F041044600251E46904625
:1035A000C80301D5302700E02027880404D505E0B2
:1035B00041463846B0476D1C641EF9D52846BDE823
:1035C000F08138B504468DF8000069460320ABBE93
:1035D000204638BD064D4FF480644FF4FA762146FC
:1035E0002846FDF79BFF304600F029F8F7E700007A
:1035F000001C024000B587B01C2205496846FCF754
:1036000072FE0021684600F026F807B000BD0000F9
:1036100054410008FDF79EFFFFF764F8FEF72AFF0C
:10362000FEF7ECFEFEF770FFFEF708FF00F00EF865
:10363000FEE701460020842900D0C81C704710B561
:1036400000B9012000F024FB002010BD10B500F0EF
:1036500045FB002010BD7FB50D4604464169B0F919
:10366000080081B1A16971B1FFF7E3FFD4E9051248
:103670008DE80700D4E900102B46226900F041FCD8
:10368000039004B070BDFFF7D4FF03A9CDE900019A
:10369000208A2B4682B2D4E9001000F005FC0128F4
:1036A00001D00020EDE70398EBE700002DE9F041A1
:1036B000184C0F460546E6682068001D00F020FA09
:1036C00038B9206890F82C10012088402169814386
:1036D0002161681C07D137B12168BDE8F0410E486F
:1036E000091D00F051BA20683544B5424560216893
:1036F00005D2A06BBDE8F041091D00F02DBA606B4A
:10370000091D00F029FAA06A854200D2A562BDE831
:10371000F081000014000020A00400202DE9F041F9
:10372000054600F03DFA2E4CA068401CA0602068C1
:103730002C4F10B1606940B32DE02560A0680128CE
:1037400029D1002606EB860007EB800000F0F6F991
:10375000761C072EF6D323488C3000F0EFF9214871
:10376000A03000F0EBF91F48B43000F0E7F91D4835
:10377000C83000F0E3F91B48DC3000F0DFF91948ED
:103780008C3060631430A06305E02068E96AC06A89
:10379000884200D82560606A401C6062E96A0120A6
:1037A000226988401043206101EB810007EB800013
:1037B000291D00F0E9F900F013FA606900280CD027
:1037C0002068E96AC06A884207D207494FF08050F2
:1037D0000860BFF34F8FBFF36F8FBDE8F08100002B
:1037E00014000020C403002004ED00E010B50446DE
:1037F00090F8510058B101280CD002280FD0502069
:1038000080F31188BFF34F8FBFF36F8FFEE7206BFC
:1038100000F0FAF92046BDE8104000F0F5B910BDFF
:1038200010484FF47051420706D0C01D0D4920F0DA
:103830000700411AC1F570510B4A00230144C2E947
:1038400000030839183A21F0070111604B600B6042
:103850000B1AC0E9001393604FF0004053605061B1
:1038600070470000B404002068000020144E154C7E
:10387000A6F1C8074FF08058DFF84C9012E000BF67
:1038800000F08EF9F068C568281D00F039F9A068CD
:10389000401EA0606068401E606000F0A1F92846EC
:1038A000FFF7A4FF60680028EAD138680128F9D939
:1038B000C9F80080BFF34F8FBFF36F8FF2E70000AE
:1038C0008C0400201400002004ED00E02DE9F047F6
:1038D0009A46DDE9098481466FF00303206B03EB10
:1038E00082021044089E20F00707780707D0502076
:1038F00080F31188BFF34F8FBFF36F8FFEE7002572
:1039000061B1002023180A5C83F834200A5C12B1EC
:10391000401C1028F6D384F8435001E084F834505A
:10392000072E00D30626E662C4E91165201D00F0CB
:1039300010F904F1180000F00CF92461C6F1070039
:103940006462A061E56484F85050524649463846A6
:1039500000F0C0F82060B8F1000F01D0C8F80040B6
:10396000BDE8F08730B5114900E011460A6882428F
:10397000FBD34B685C18844203D14068184448600C
:10398000084643681C18944209D1084C183C246826
:10399000A24209D052681A4442600A681268026062
:1039A000814200D0086030BD0460F9E76800002063
:1039B0000648416B096829B1416BC968C968496803
:1039C000816270474FF0FF31FAE7000014000020D9
:1039D00008484068401C4FF0500080F3118804D024
:1039E000BFF34F8FBFF36F8FFEE7BFF34F8FBFF370
:1039F0006F8FFEE7700000202DE9F041054600279B
:103A000000F0A2F9324E306808B9FFF709FF70697B
:103A100005424ED1C5B3083568070ED005F0070042
:103A2000C0F108000544680707D0502080F31188D2
:103A3000BFF34F8FBFF36F8FFEE72DB370688542E2
:103A400037D82348183001460C6801E020460C4660
:103A50006168A94202D221680029F7D131688C42FD
:103A600027D007682168016060680837411B10296A
:103A70000FD96019420708D0502080F31188BFF396
:103A80004F8FBFF36F8FFEE713E041606560FFF774
:103A900069FF61687068401A7060B268904200D235
:103AA000B060706901430020C4E90001F068401C67
:103AB000F06000F0B7FA780707D0502080F3118843
:103AC000BFF34F8FBFF36F8FFEE73846BDE8F0813D
:103AD0005000002010B5031F4FF080741C601B1FA6
:103AE00021F001011960191F044B0B6014390A60A1
:103AF000091F6FF0020244380A6010BDD139000876
:103B0000D0E9013201699A60D0E901235A604A681C
:103B1000824201D182684A60002202610868401E28
:103B20000860086870470000034B036003F154000D
:103B30000860802010607047B800002000F1080184
:103B40004FF0FF32C0E90112C16001610021016044
:103B5000704700210161704730B50B685A1C02D0D4
:103B600000F1080202E0026904E022465468256878
:103B70009D42FAD953684B6099608A605160086130
:103B80000168491C016030BD42684A6093688B60DF
:103B900093685960916008610168491C0160704731
:103BA000502080F31188BFF34F8FBFF36F8F0A4906
:103BB0004868401C486001280CD10848006810F093
:103BC000FF0F07D0502080F31188BFF34F8FBFF352
:103BD0006F8FFEE7704700007000002004ED00E0EA
:103BE0000849486828B1401E486001D180F3118817
:103BF0007047502080F31188BFF34F8FBFF36F8F52
:103C0000FEE700007000002070B500282AD0164D95
:103C1000A0F1080460686969084207D1502080F368
:103C20001188BFF34F8FBFF36F8FFEE722683AB161
:103C3000502080F31188BFF34F8FBFF36F8FFEE7E3
:103C40008843606000F080F86068696808446860D4
:103C50002046FFF787FE2869401C2861BDE87040B8
:103C600000F0E0B970BD0000500000204FF0E020EF
:103C700000210161816105494FF47A720968B1FB45
:103C8000F2F1491E416107210161704710000020D7
:103C900010B5020014D00F48006B38B1502080F3EB
:103CA0001188BFF34F8FBFF36F8FFEE700F04CF822
:103CB00000211046FFF7FAFC00F0B4F9002807D104
:103CC00005494FF080500860BFF34F8FBFF36F8FEF
:103CD00010BD00001400002004ED00E010B586B017
:103CE0000024039405AA04A903A80494FFF71CFF69
:103CF000DDE903010094CDE9011000230EA1104875
:103D0000059A00F0FEF80F490028C86211D0502033
:103D100080F31188BFF34F8FBFF36F8F4FF0FF30E9
:103D2000886201204861CC6006B0BDE8104000F018
:103D300041B806B010BD000049444C4500000000E9
:103D40006D380008140000200248016B491C016313
:103D500070470000140000201448016B11B10121CC
:103D6000C16170470021C1610169B1FA81F1C1F1FE
:103D70001F0101EB81020E4951F822306BB101EBBA
:103D8000820101F108034A6852684A609A4201D1EF
:103D900052684A60D16801607047502080F31188F2
:103DA000BFF34F8FBFF36F8FFEE7000014000020BA
:103DB000C40300201CB537480168374A914207D137
:103DC000502080F31188BFF34F8FBFF36F8FFEE752
:103DD00000683149491E884207D1502080F311887C
:103DE000BFF34F8FBFF36F8FFEE72C490878019028
:103DF000FF20087008788DF800009DF800009DF8FD
:103E0000002000F0F000904207D0502080F311888D
:103E1000BFF34F8FBFF36F8FFEE79DF80000204C7C
:103E200000F0500020700720A06005E09DF8002001
:103E300052008DF80020401E9DF800201206F5D497
:103E4000A060032807D0502080F31188BFF34F8F64
:103E5000BFF36F8FFEE74FF44070A06001980870C9
:103E60000C482030016841F470010160016841F0A4
:103E700070410160FFF7FAFE00206060FCF7B4F9C2
:103E80000848016841F040410160FCF799F90020C1
:103E90001CBD000000ED00E071C20F4100E400E035
:103EA0007000002034EF00E02DE9FF5F8346DDE97C
:103EB0000E87994616468A469000FFF79DFD05003D
:103EC0001CD05420FFF798FD040014D00020256377
:103ED00084F85100CDE90240CDE900874B463246D7
:103EE00051465846FFF7F2FC2046FFF717FC012029
:103EF00004B0BDE8F09F2846FFF786FE4FF0FF3084
:103F0000F6E7F0B585B0DDE90B640A9DA6B1DCB13A
:103F1000542700972663022684F85160002604AFD8
:103F2000CDE90246CDE90057FFF7D0FC2046FFF768
:103F3000F5FB049805B0F0BD502080F31188BFF365
:103F40004F8FBFF36F8FFEE7502080F31188BFF3D0
:103F50004F8FBFF36F8FFEE72DE9F0412F4C002606
:103F6000206B28B1A069401CA0613046BDE8F081FB
:103F7000E5686D1CE56013D1606B006838B15020B6
:103F800080F31188BFF34F8FBFF36F8FFEE7606B35
:103F9000A16B6163A063206A401C2062FFF708FDEB
:103FA000A06ADFF87C80854209D3606B0068A0B10D
:103FB000606BC068C7687868854211D2A0622068CB
:103FC000C06A00EB800158F82100012800D90126C1
:103FD000E0690028C9D00126C7E74FF0FF30EDE7C0
:103FE000381DFFF78DFDB86A18B107F11800FFF70B
:103FF00087FDF96A0120226988401043206101EBA6
:10400000810108EB8100391DFFF7BEFDF86A2168C8
:10401000C96A8842C9D30126C7E7000014000020FE
:10402000C40300202DE9F0472C4D00242746286BBF
:1040300038B1FFF7B5FD286B401E2863286B40B1EF
:1040400046E0502080F31188BFF34F8FBFF36F8F8E
:10405000FEE7A968224E0120D1B3A6F1B40980463B
:104060003068E8B1F068C46804F11800FFF748FD53
:10407000201DFFF745FDE06A2A6908FA00F11143A7
:10408000296100EB800109EB8100211DFFF77CFD18
:10409000E06A2968C96A8842E2D3C5F81C80DFE774
:1040A0000CB1FFF785FCAC6944B14646FFF754FFFD
:1040B00000B1EE61641EF9D10020A861E86938B151
:1040C0000849012738070860BFF34F8FBFF36F8F90
:1040D000FFF786FD3846BDE8F08700001400002099
:1040E0007804002004ED00E070410008B1260008CB
:1040F0000000000000000000800000000000000040
:1041000000000000000000000000000001020304A5
:104110000607080900000000010203047C410008B2
:104120004509000800000000000000000002000037
:104130000000000000000000884100086926000817
:10414000000000000000000000020000000000006D
:104150000000000090410008D53500080000000074
:10416000000000000002000000000000000000004D
:1041700064656661756C745461736B0043616E5362
:10418000657269616C00000053657269616C0000C2
:104190006C69676874000000B841000800000020E6
:1041A000B8000000182D000870420008B800002078
:1041B00000460000282D000800000000010000005B
:1041C00010000000000000000024F40000000000C7
:1041D00000000000000000000000000000000000DF
:1041E00000000000000000000000000000000000CF
:1041F00000000000000000000000000000000000BF
:1042000000000000000000000000000000000000AE
:10421000000000000000000000000000000000009E
:10422000000000000000000000000000AAAAAAAAE6
:104230000000000000007A4500007A4500007A4541
:1042400000007A4544220000010000000100000047
:10425000010000000000AFC3000048C300000000E0
:104260000000000000007A430000874300000000C7
:040000050800018965
:00000001FF
